:100000000C9473000C949B000C949B000C949B002C
:100010000C949B000C949B000C949B000C949B00F4
:100020000C949B000C949B000C949B000C949B00E4
:100030000C949B000C949B000C949B000C949B00D4
:100040000C94E1070C949B000C9414060C94570636
:100050000C949B000C949B000C949B000C949B00B4
:100060000C949B000C949B00000000006410B71DD2
:10007000C8206E3BAC30D9269041DC76F4516B6BD6
:100080005861B24D3C7105502083B8ED44930FF098
:10009000E8A3D6D68CB361CBB0C2649BD4D2D3864E
:1000A00078E20AA01CF2BDBD0102040810204080C5
:1000B00001020408102001020408102004040404B2
:1000C0000404040402020202020203030303030302
:1000D00000000000250028002B0000000000240084
:1000E00027002A000D0711241FBECFEFD8E0DEBF86
:1000F000CDBF13E0A0E0B1E0EEE6F1E102C0059073
:100100000D92A03AB107D9F716E0A0EAB3E001C01A
:100110001D92A736B107E1F710E0C6EED0E004C0AB
:100120002297FE010E949B08C43ED107C9F70E9496
:1001300063070C94B5080C9400000F931F93242FB1
:1001400026272F7034E0239FF0011124E859FF4F38
:100150000591159125913491DC01CB0154E0B695C0
:10016000A795979587955A95D1F7082719272A2794
:100170003B27E42FE295EF70E027EF7084E0E89FE3
:10018000F0011124E859FF4F85919591A591B49103
:1001900064E036952795179507956A95D1F7082756
:1001A00019272A273B27B801C9011F910F910895EC
:1001B0000F931F93CF93DF938B01EC01080F191F4F
:1001C0006FEF7FEFCB0103C049910E949D00C017E4
:1001D000D107D1F78B019C010095109520953095A2
:1001E000B801C901DF91CF911F910F910895CF926E
:1001F000DF92EF92FF920F931F93CF93DF93EC0167
:100200006A017B0108E110E0B701A601002E04C0DD
:1002100076956795579547950A94D2F7BE0183EB7B
:1002200095E00E943D05085011092196083F8FEF87
:10023000180751F7DF91CF911F910F91FF90EF9029
:10024000DF90CF900895CF92DF92EF92FF920F93BD
:100250001F93CF93DF938C01C8E1D0E0C12CD12C48
:100260007601B80183EB95E00E943A05482F50E0F3
:1002700060E070E00C2E04C0440F551F661F771F0E
:100280000A94D2F7C42AD52AE62AF72A0F5F1F4F0D
:100290002897C83F8FEFD80721F7B601C701DF9134
:1002A000CF911F910F91FF90EF90DF90CF90089525
:1002B000CF92DF92EF92FF92CF93DF9360E070E0F6
:1002C00083EB95E00E943A0590E08F3F910529F07D
:1002D0009093A6048093A50404C01092A6041092E3
:1002E000A5046FEF73E083EB95E00E943A058093DD
:1002F000A0032091A5043091A6042115310529F40D
:10030000843080F11092A5032DC01216130654F507
:10031000C6EAD3E0E12CF12C0BC0B7016B5F7F4F35
:1003200083EB95E00E943A0589938FEFE81AF80A6B
:100330006091A5047091A604E616F70670F386EAAC
:1003400093E00E94D8006B017C0181E090E00E9464
:100350002301C616D706E806F90621F01092A60476
:100360001092A5048091A5049091A604892BC9F050
:100370002091A5043091A60446E0429FC001439F0E
:10038000900D11249093A6048093A5041092A403C9
:100390001092A3031092A2031092A1031092A7043B
:1003A00020C0E091A003E43018F7F0E0EE0FFF1F4B
:1003B000E050FF4F2081318109C0FC01EA55FC4F1C
:1003C000408301969093A6048093A5048091A50490
:1003D0009091A604F901E80FF91F40814111EDCF7A
:1003E000C7CFDF91CF91FF90EF90DF90CF9008952E
:1003F00061E087E00E94410561E086E00E944105DE
:1004000061E085E00E94410540E855E260E070E06F
:1004100084EB95E00E9492061092B2051092A5031B
:100420000C9458010F931F93CF93DF931F92CDB776
:10043000DEB784EB95E00E947905181619060CF0DA
:10044000A7C184EB95E00E94A805482F682F84EB94
:1004500095E049830E94D7058091B20549818111B9
:100460000FC0433021F481E08093A90517C04130CB
:1004700009F08EC184E68093B2054093A90588C136
:10048000813079F4433009F081C18091A9058F5FF3
:100490008093A905833009F07BC182E08093B20587
:1004A00077C1823021F44093A90583E0F7CF8330F0
:1004B00089F450E060E070E0742F662755274427E8
:1004C0004093AE055093AF056093B0057093B105AE
:1004D00084E0E4CF843099F40091AE051091AF052B
:1004E0002091B0053091B105242B0093AE051093F7
:1004F000AF052093B0053093B10585E0CFCF8530AF
:1005000099F40091AE051091AF052091B00530919E
:10051000B105142B0093AE051093AF052093B005E1
:100520003093B10586E0BACF863099F40091AE05DC
:100530001091AF052091B0053091B105042B0093C7
:10054000AE051093AF052093B0053093B10587E059
:10055000A5CF8730A1F48091A905842790E0A0E081
:10056000B0E0B82FAA27992788278093AA059093EF
:10057000AB05A093AC05B093AD0588E08FCF883074
:10058000B1F42091A90524278091AA059091AB058B
:10059000A091AC05B091AD05A22B8093AA059093D4
:1005A000AB05A093AC05B093AD0589E077CF89305A
:1005B000B1F42091A90524278091AA059091AB055B
:1005C000A091AC05B091AD05922B8093AA059093B4
:1005D000AB05A093AC05B093AD058AE05FCF8A3040
:1005E00041F52091A90524278091AA059091AB059A
:1005F000A091AC05B091AD05822B8093AA05909394
:10060000AB05A093AC05B093AD054091AE055091FC
:10061000AF056091B0057091B105481759076A0799
:100620007B0709F0B3C08BE08093B2051092A80558
:10063000AFC08B3009F05CC06091A805E62FF0E0F8
:10064000E855FB4F40836F5F6093A8058091A90533
:1006500068139EC01092B20570E088EA94E00E9490
:10066000D8000091AE051091AF052091B0053091F2
:10067000B105601771078207930709F089C00EC0A2
:10068000612F70E0FB01E855FB4F6B5F7F4F4081AE
:1006900083EB95E00E943D051F5F01C010E0409193
:1006A000A905141768F360E070E083EB95E00E9401
:1006B0003D054091AE055091AF056091B005709138
:1006C000B10581E090E00E94F70068E071E084EB02
:1006D00095E00E94AE07E091A905F0E0E855FB4FD8
:1006E000108268EA74E084EB95E00E94CD074AC06E
:1006F000843669F4413009F049C08091A9058F5FC3
:100700008093A905833009F043C085E6C7CE8536BE
:1007100051F440534430D0F54093A80481E08093D5
:10072000A90586E6BBCE863699F540530091A8040C
:10073000112707FD1095242F30E00217130731F51C
:100740008091A9058F5F8093A905833009F567E142
:1007500071E084EB95E049830E94AE07F801EE0F4B
:10076000FF1FE050FF4F6081718184EB95E00E9494
:10077000CD0749816FEF73E083EB95E00E943D0563
:100780001092B20581E08093A70402C01092B205D6
:100790000F90DF91CF911F910F9108955F9A8BB1C8
:1007A0001BB8089528E030E040E850E06BB1607875
:1007B0006BB9BA0168237923672B11F05D9A03C0E6
:1007C0006BB1607C6BB95E9A5595479521503109A4
:1007D00069F70895CF93DF93EB0120E830E002C082
:1007E000359527958A95E2F7C901809590950E94E5
:1007F000D203CE010E94D203DF91CF910C94CE039D
:10080000FF920F931F93CF93DF938091A504909154
:10081000A604892B19F0FF24F39402C07AE0F72E86
:100820008091A50381111DC0C0E0D0E06FE770E0AA
:10083000CE010E94EA032196C830D105B9F7809114
:10084000A1039091A20301969093A2038093A10328
:1008500044E6F49E90011124281739070CF08EC04D
:1008600080C0813009F040C08091A3039091A4031F
:1008700081709927C5E5D0E002C0CC0FDD1F8A95B5
:10088000E2F7CF77DD2700E010E0BE01C8010E944B
:10089000EA030F5F1F4F08301105B9F78091A103DC
:1008A0009091A203019648E2F49E9001112428172A
:1008B00039072CF09093A2038093A1030DC01092EE
:1008C000A2031092A1038091A3039091A403019627
:1008D0009093A4038093A3038091A3039091A40316
:1008E0000A9708F44BC03DC0823009F047C0C1E010
:1008F000D0E00090A30302C0CC0FDD1F0A94E2F702
:10090000CF77DD2700E010E0BE01C8010E94EA03B6
:100910000F5F1F4F08301105B9F78091A103909127
:10092000A203019648E2F49E90011124281739078A
:100930002CF09093A2038093A1030DC01092A20308
:100940001092A1038091A3039091A4030196909328
:10095000A4038093A3038091A3039091A40307971A
:1009600068F01092A2031092A1038091A5038F5FFB
:100970008093A5031092A4031092A3038091A50372
:10098000833040F08091A5049091A604892B11F446
:100990001092A503DF91CF911F910F91FF900895C1
:1009A0000F931F93CF93DF938091A70481110E942F
:1009B00058018091A503833030F4DF91CF911F91CE
:1009C0000F910C940004C0E0D0E006E010E08091AC
:1009D000A3039091A4038C0F9D1F6091A5047091B7
:1009E000A6040E9463089C01B8010E9463086A552E
:1009F0007C4FFB01408140320CF440E2C901B80158
:100A00000E946308F6E04F02800D911D112481576A
:100A10009F4FFC016081772767FD7095CE010E9492
:100A2000EA032196C830D10591F68091A1039091F7
:100A3000A2030196853191052CF49093A203809333
:100A4000A10313C01092A2031092A1038091A303EB
:100A50009091A40301966091A5047091A6040E9450
:100A600063089093A4038093A303DF91CF911F9118
:100A70000F910895CB010C949F08CB01642F0C9427
:100A8000A708CF93DF9390E0FC01E855FF4F449116
:100A9000FC01E454FF4F8491882341F190E0880FDA
:100AA000991FFC01E652FF4F25913491D9018053E3
:100AB0009F4FFC0185919491C82FD92F9FB7F8942F
:100AC0008C91611106C0409584238C938881842386
:100AD00008C0623041F4242F209582238C938881B2
:100AE000842B888302C0842B8C939FBFDF91CF918E
:100AF0000895FC0184859585FC01E05CFF4F208111
:100B00003181FC01EE5BFF4F80819181281B390B05
:100B10002F733327C9010895FC0184859585FC0155
:100B2000E05CFF4F40815181FC01EE5BFF4F208173
:100B300031814217530741F00190F081E02DE80F19
:100B4000F91F208130E002C02FEF3FEFC901089567
:100B5000FC0184859585FC01E05CFF4F408151815B
:100B6000FC01EE5BFF4F208131814217530781F07A
:100B7000A081B181A80FB91F8C91208131812F5F95
:100B80003F4F2F73332731832083282F30E002C05B
:100B90002FEF3FEFC9010895FC0181A1882329F0BF
:100BA000A489B5898C9186FFFBCF11A20895CF93BC
:100BB000DF93FC0126853785D901A05CBF4F8D915D
:100BC0009C91119701968F739927E901CE5BDF4FB6
:100BD0004881598184179507D9F30D90BC91A02DB8
:100BE000A20FB31F6C93A685B785A05CBF4F11966B
:100BF0009C938E93A689B7892C9181E090E0078C15
:100C000002C0880F991F0A94E2F7282B2C9381E0E9
:100C100081A30488F589E02D80818064808381E050
:100C200090E0DF91CF9108951F920F920FB60F922F
:100C300011242F933F934F938F939F93EF93FF93A1
:100C40008091C00082FD1CC04091C60080915A0670
:100C500090915B0601968F73992720915C063091E5
:100C60005D068217930771F0E0915A06F0915B06DA
:100C7000E65EF94F408390935B0680935A0602C06C
:100C80008091C600FF91EF919F918F914F913F917D
:100C90002F910F900FBE0F901F90189584EB95E049
:100CA0000E947905892B11F00C94120208951F926D
:100CB0000F920FB60F9211242F933F938F939F9310
:100CC000EF93FF9320911606309117068091180636
:100CD000909119062817390731F48091C1008F7D52
:100CE0008093C10014C0E0911806F0911906EA52F1
:100CF000FA4F2081809118069091190601968F7302
:100D0000992790931906809318062093C600FF91A7
:100D1000EF919F918F913F912F910F900FBE0F9068
:100D20001F901895CF92DF92EF92FF92CF93DF93AF
:100D3000EC016A017B01EC89FD8981E090E008A06B
:100D400002C0880F991F0A94E2F7808360E271EA7B
:100D500087E090E0A70196010E94770821503109B1
:100D6000410951095695479537952795211580E1F9
:100D7000380798F0EC89FD89108260E970ED83E016
:100D800090E0A70196010E9477082150310941099E
:100D900051095695479537952795E889F989308304
:100DA000EA89FB89208319A2EE89FF89408181E0CD
:100DB00090E09C010C8C02C0220F331F0A94E2F7D2
:100DC000422B4083EE89FF8940819C010D8C02C03B
:100DD000220F331F0A94E2F7422B4083EE89FF89EA
:100DE00040819C010E8C02C0220F331F0A94E2F74F
:100DF000422B4083EE89FF8920810F8C02C0880F2F
:100E0000991F0A94E2F7809582238083DF91CF9126
:100E1000FF90EF90DF90CF9008951092B705109259
:100E2000B60588EE93E0A0E0B0E08093B80590931B
:100E3000B905A093BA05B093BB0583E993E09093FD
:100E4000B5058093B4058AE196E09093C10580933F
:100E5000C00586ED95E09093C3058093C20585ECAF
:100E600090E09093C5058093C40584EC90E0909346
:100E7000C7058093C60580EC90E09093C9058093E8
:100E8000C80581EC90E09093CB058093CA0582EC75
:100E900090E09093CD058093CC0586EC90E0909304
:100EA000CF058093CE0584E08093D00583E08093C6
:100EB000D10587E08093D20585E08093D30581E05A
:100EC0008093D40508950E942B080E94F801CEE477
:100ED000D6E00E94D0042097E1F30E944E06F9CF9D
:100EE000CF92DF92EF92FF920F931F93CF93DF93F6
:100EF0006C01EB017A01E60EF71E00E010E00BC07A
:100F00006991D601ED91FC910190F081E02DC6012F
:100F10000995080F191FCE15DF0591F7C801DF915C
:100F2000CF911F910F91FF90EF90DF90CF90089598
:100F30006115710581F0DB010D900020E9F7AD012D
:100F400041505109461B570BDC01ED91FC91028089
:100F5000F381E02D099480E090E008950C949807C7
:100F6000DC01ED91FC910190F081E02D09940F934B
:100F70001F93CF93DF93EC016DE00E94B0078C01CB
:100F80006AE0CE010E94B0079C01200F311FC90109
:100F9000DF91CF911F910F9108950F931F93CF93DE
:100FA000DF93EC010E9498078C01CE010E94B707E5
:100FB0009801280F391FC901DF91CF911F910F911F
:100FC00008951F920F920FB60F9211242F933F9303
:100FD0008F939F93AF93BF9380915E0690915F062E
:100FE000A0916006B091610630916606232F285EBD
:100FF0002D3720F40896A11DB11D05C0232F2556BD
:101000000996A11DB11D2093660680935E069093FC
:101010005F06A0936006B09361068091620690918E
:101020006306A0916406B09165060196A11DB11DED
:101030008093620690936306A0936406B09365065E
:10104000BF91AF919F918F913F912F910F900FBEC4
:101050000F901F901895789484B5826084BD84B5F4
:10106000816084BD85B5826085BD85B5816085BDA3
:10107000EEE6F0E0808181608083E1E8F0E01082BC
:10108000808182608083E0E8F0E0808181608083FD
:10109000E1EBF0E0808184608083E0EBF0E0808130
:1010A00081608083EAE7F0E08081846080838081D2
:1010B000826080838081816080838081806880837A
:1010C0001092C1000895AA1BBB1B51E107C0AA1FC3
:1010D000BB1FA617B70710F0A61BB70B881F991FD9
:1010E0005A95A9F780959095BC01CD010895A1E28C
:1010F0001A2EAA1BBB1BFD010DC0AA1FBB1FEE1F92
:10110000FF1FA217B307E407F50720F0A21BB30BDC
:10111000E40BF50B661F771F881F991F1A9469F758
:1011200060957095809590959B01AC01BD01CF01B4
:101130000895EE0FFF1F0590F491E02D0994F999A1
:10114000FECF92BD81BDF89A992780B50895262FCC
:10115000F999FECF1FBA92BD81BD20BD0FB6F8949C
:0E116000FA9AF99A0FBE01960895F894FFCFFF
:10116E002E0138014001490157726F7465206D657B
:10117E0073736167653A0053657474696E672062B4
:10118E0061646765207479706520746F3A00202061
:10119E00537065616B657200202053746166660042
:1011AE002020477272434F4E0020205649500000B7
:1011BE00000000000000005F0000000403000403B4
:1011CE0000143E143E1400242A6B2A12002210082A
:1011DE00042200364955225000000004030000008E
:1011EE00001C2241000041221C000014083E08147D
:1011FE000008083E080800402010000000080808FB
:10120E000808000030300000002010080402003EE4
:10121E005149453E0000427F40000062514945421F
:10122E0000004149493600070808087F0047494930
:10123E004931003E49494932006111090503003622
:10124E004949493600064949493E000036360000F4
:10125E000000563600000000081422410014141439
:10126E001414000041221408000201590502003234
:10127E004979413E007E0909097E007F4949493678
:10128E00003E41414122007F4141413E007F49499C
:10129E004949007F09090909003E41414939007F4A
:1012AE000808087F0041417F414100204040403FF7
:1012BE00007F08142241007F40404040007F060C12
:1012CE00067F007F020C107F003E4141413E007FB1
:1012DE0009090906003E4151215E007F0919294680
:1012EE000046494949310001017F0101003F40405C
:1012FE00403F000718601807007F3018307F0063EA
:10130E001408146300070878080700615149454323
:10131E000000007F41410002040810200041417F7F
:10132E000000000402010204004040404040000161
:10133E0002040000002054545478003F48484830BE
:10134E0000304848484800304848483F0038545418
:10135E00540800087E090902004854545438007F8E
:10136E0008080870000000740000002040403A0099
:10137E00007F102844000000417F400000780418D0
:10138E000478007804040478003844444438007823
:10139E0014141408000814141478007C08040408AB
:1013AE0000485454542400083E482800003C404055
:1013BE00403C001C2040201C003C4030403C00447F
:1013CE0028102844004428100804004464544C4457
:1013DE000000083641410000007700000041413610
:1013EE00080000020101020100562D2F2D560000AB
:1013FE00000000D70570077905A8058C05CC0500FF
:00000001FF
